{
  "contractName": "DistributorTracker",
  "abi": [
    {
      "inputs": [],
      "stateMutability": "nonpayable",
      "type": "constructor"
    },
    {
      "anonymous": false,
      "inputs": [
        {
          "indexed": false,
          "internalType": "string",
          "name": "productId",
          "type": "string"
        },
        {
          "indexed": false,
          "internalType": "address",
          "name": "from",
          "type": "address"
        },
        {
          "indexed": false,
          "internalType": "address",
          "name": "to",
          "type": "address"
        },
        {
          "indexed": false,
          "internalType": "uint256",
          "name": "timestamp",
          "type": "uint256"
        }
      ],
      "name": "ProductTransferred",
      "type": "event"
    },
    {
      "inputs": [],
      "name": "admin",
      "outputs": [
        {
          "internalType": "address",
          "name": "",
          "type": "address"
        }
      ],
      "stateMutability": "view",
      "type": "function",
      "constant": true
    },
    {
      "inputs": [
        {
          "internalType": "string",
          "name": "",
          "type": "string"
        },
        {
          "internalType": "uint256",
          "name": "",
          "type": "uint256"
        }
      ],
      "name": "productTransfers",
      "outputs": [
        {
          "internalType": "string",
          "name": "productId",
          "type": "string"
        },
        {
          "internalType": "address",
          "name": "from",
          "type": "address"
        },
        {
          "internalType": "address",
          "name": "to",
          "type": "address"
        },
        {
          "internalType": "uint256",
          "name": "timestamp",
          "type": "uint256"
        }
      ],
      "stateMutability": "view",
      "type": "function",
      "constant": true
    },
    {
      "inputs": [
        {
          "internalType": "string",
          "name": "_productId",
          "type": "string"
        },
        {
          "internalType": "address",
          "name": "_to",
          "type": "address"
        }
      ],
      "name": "transferProduct",
      "outputs": [],
      "stateMutability": "nonpayable",
      "type": "function"
    },
    {
      "inputs": [
        {
          "internalType": "string",
          "name": "_productId",
          "type": "string"
        }
      ],
      "name": "getTransfers",
      "outputs": [
        {
          "components": [
            {
              "internalType": "string",
              "name": "productId",
              "type": "string"
            },
            {
              "internalType": "address",
              "name": "from",
              "type": "address"
            },
            {
              "internalType": "address",
              "name": "to",
              "type": "address"
            },
            {
              "internalType": "uint256",
              "name": "timestamp",
              "type": "uint256"
            }
          ],
          "internalType": "struct DistributorTracker.ProductTransfer[]",
          "name": "",
          "type": "tuple[]"
        }
      ],
      "stateMutability": "view",
      "type": "function",
      "constant": true
    }
  ],
  "bytecode": "0x608060405234801561001057600080fd5b50336000806101000a81548173ffffffffffffffffffffffffffffffffffffffff021916908373ffffffffffffffffffffffffffffffffffffffff160217905550610c6c806100606000396000f3fe608060405234801561001057600080fd5b506004361061004c5760003560e01c80635eb1e6cb1461005157806390afcb9d14610084578063c4d6ac98146100a0578063f851a440146100d0575b600080fd5b61006b60048036038101906100669190610758565b6100ee565b60405161007b94939291906109cb565b60405180910390f35b61009e60048036038101906100999190610704565b610219565b005b6100ba60048036038101906100b591906106c3565b6103a5565b6040516100c791906109a9565b60405180910390f35b6100d861056a565b6040516100e5919061098e565b60405180910390f35b600182805160208101820180518482526020830160208501208183528095505050505050818154811061012057600080fd5b90600052602060002090600402016000915091505080600001805461014490610b67565b80601f016020809104026020016040519081016040528092919081815260200182805461017090610b67565b80156101bd5780601f10610192576101008083540402835291602001916101bd565b820191906000526020600020905b8154815290600101906020018083116101a057829003601f168201915b5050505050908060010160009054906101000a900473ffffffffffffffffffffffffffffffffffffffff16908060020160009054906101000a900473ffffffffffffffffffffffffffffffffffffffff16908060030154905084565b6001826040516102299190610977565b908152602001604051809103902060405180608001604052808481526020013373ffffffffffffffffffffffffffffffffffffffff1681526020018373ffffffffffffffffffffffffffffffffffffffff16815260200142815250908060018154018082558091505060019003906000526020600020906004020160009091909190915060008201518160000190805190602001906102c992919061058e565b5060208201518160010160006101000a81548173ffffffffffffffffffffffffffffffffffffffff021916908373ffffffffffffffffffffffffffffffffffffffff16021790555060408201518160020160006101000a81548173ffffffffffffffffffffffffffffffffffffffff021916908373ffffffffffffffffffffffffffffffffffffffff1602179055506060820151816003015550507f6c37ca4ce4c7e38038d1e3c1f75f6d44da2bdc96a8096fc8bcf3f1c865fb56ad8233834260405161039994939291906109cb565b60405180910390a15050565b60606001826040516103b79190610977565b9081526020016040518091039020805480602002602001604051908101604052809291908181526020016000905b8282101561055f578382906000526020600020906004020160405180608001604052908160008201805461041890610b67565b80601f016020809104026020016040519081016040528092919081815260200182805461044490610b67565b80156104915780601f1061046657610100808354040283529160200191610491565b820191906000526020600020905b81548152906001019060200180831161047457829003601f168201915b505050505081526020016001820160009054906101000a900473ffffffffffffffffffffffffffffffffffffffff1673ffffffffffffffffffffffffffffffffffffffff1673ffffffffffffffffffffffffffffffffffffffff1681526020016002820160009054906101000a900473ffffffffffffffffffffffffffffffffffffffff1673ffffffffffffffffffffffffffffffffffffffff1673ffffffffffffffffffffffffffffffffffffffff168152602001600382015481525050815260200190600101906103e5565b505050509050919050565b60008054906101000a900473ffffffffffffffffffffffffffffffffffffffff1681565b82805461059a90610b67565b90600052602060002090601f0160209004810192826105bc5760008555610603565b82601f106105d557805160ff1916838001178555610603565b82800160010185558215610603579182015b828111156106025782518255916020019190600101906105e7565b5b5090506106109190610614565b5090565b5b8082111561062d576000816000905550600101610615565b5090565b600061064461063f84610a48565b610a17565b90508281526020810184848401111561065c57600080fd5b610667848285610b25565b509392505050565b60008135905061067e81610c08565b92915050565b600082601f83011261069557600080fd5b81356106a5848260208601610631565b91505092915050565b6000813590506106bd81610c1f565b92915050565b6000602082840312156106d557600080fd5b600082013567ffffffffffffffff8111156106ef57600080fd5b6106fb84828501610684565b91505092915050565b6000806040838503121561071757600080fd5b600083013567ffffffffffffffff81111561073157600080fd5b61073d85828601610684565b925050602061074e8582860161066f565b9150509250929050565b6000806040838503121561076b57600080fd5b600083013567ffffffffffffffff81111561078557600080fd5b61079185828601610684565b92505060206107a2858286016106ae565b9150509250929050565b60006107b883836108f6565b905092915050565b6107c981610ae9565b82525050565b6107d881610ae9565b82525050565b60006107e982610a88565b6107f38185610aab565b93508360208202850161080585610a78565b8060005b85811015610841578484038952815161082285826107ac565b945061082d83610a9e565b925060208a01995050600181019050610809565b50829750879550505050505092915050565b600061085e82610a93565b6108688185610abc565b9350610878818560208601610b34565b61088181610bf7565b840191505092915050565b600061089782610a93565b6108a18185610acd565b93506108b1818560208601610b34565b6108ba81610bf7565b840191505092915050565b60006108d082610a93565b6108da8185610ade565b93506108ea818560208601610b34565b80840191505092915050565b600060808301600083015184820360008601526109138282610853565b915050602083015161092860208601826107c0565b50604083015161093b60408601826107c0565b50606083015161094e6060860182610959565b508091505092915050565b61096281610b1b565b82525050565b61097181610b1b565b82525050565b600061098382846108c5565b915081905092915050565b60006020820190506109a360008301846107cf565b92915050565b600060208201905081810360008301526109c381846107de565b905092915050565b600060808201905081810360008301526109e5818761088c565b90506109f460208301866107cf565b610a0160408301856107cf565b610a0e6060830184610968565b95945050505050565b6000604051905081810181811067ffffffffffffffff82111715610a3e57610a3d610bc8565b5b8060405250919050565b600067ffffffffffffffff821115610a6357610a62610bc8565b5b601f19601f8301169050602081019050919050565b6000819050602082019050919050565b600081519050919050565b600081519050919050565b6000602082019050919050565b600082825260208201905092915050565b600082825260208201905092915050565b600082825260208201905092915050565b600081905092915050565b6000610af482610afb565b9050919050565b600073ffffffffffffffffffffffffffffffffffffffff82169050919050565b6000819050919050565b82818337600083830152505050565b60005b83811015610b52578082015181840152602081019050610b37565b83811115610b61576000848401525b50505050565b60006002820490506001821680610b7f57607f821691505b60208210811415610b9357610b92610b99565b5b50919050565b7f4e487b7100000000000000000000000000000000000000000000000000000000600052602260045260246000fd5b7f4e487b7100000000000000000000000000000000000000000000000000000000600052604160045260246000fd5b6000601f19601f8301169050919050565b610c1181610ae9565b8114610c1c57600080fd5b50565b610c2881610b1b565b8114610c3357600080fd5b5056fea26469706673582212206128b5c0de807c8565b4704dfcab4ce5fa00f8d39bc14e67f6d48e0f7ef6718864736f6c63430008000033",
  "immutableReferences": {},
  "source": "// SPDX-License-Identifier: MIT\r\npragma solidity ^0.8.0;\r\n\r\ncontract DistributorTracker {\r\n    address public admin;\r\n\r\n    struct ProductTransfer {\r\n        string productId;\r\n        address from;\r\n        address to;\r\n        uint timestamp;\r\n    }\r\n\r\n    mapping(string => ProductTransfer[]) public productTransfers;\r\n\r\n    event ProductTransferred(string productId, address from, address to, uint timestamp);\r\n\r\n    modifier onlyAdmin() {\r\n        require(msg.sender == admin, \"Only admin can perform this action\");\r\n        _;\r\n    }\r\n\r\n    constructor() {\r\n        admin = msg.sender;\r\n    }\r\n\r\n    function transferProduct(string memory _productId, address _to) public {\r\n        productTransfers[_productId].push(ProductTransfer(_productId, msg.sender, _to, block.timestamp));\r\n        emit ProductTransferred(_productId, msg.sender, _to, block.timestamp);\r\n    }\r\n\r\n    function getTransfers(string memory _productId) public view returns (ProductTransfer[] memory) {\r\n        return productTransfers[_productId];\r\n    }\r\n}\r\n",
  "sourcePath": "E:\\COLLEGE\\sem6\\BC\\MINI_PROJECT\\latest\\product-authenticator\\contracts\\DistributorTracker.sol",
  "compiler": {
    "name": "solc",
    "version": "0.8.0+commit.c7dfd78e.Emscripten.clang"
  },
  "schemaVersion": "3.4.16",
  "updatedAt": "2025-04-21T08:05:04.707Z",
  "networkType": "ethereum",
  "devdoc": {
    "kind": "dev",
    "methods": {},
    "version": 1
  },
  "userdoc": {
    "kind": "user",
    "methods": {},
    "version": 1
  }
}