{
  "contractName": "ManufacturerRegistry",
  "abi": [
    {
      "inputs": [],
      "stateMutability": "nonpayable",
      "type": "constructor"
    },
    {
      "anonymous": false,
      "inputs": [
        {
          "indexed": false,
          "internalType": "address",
          "name": "manufacturer",
          "type": "address"
        }
      ],
      "name": "ManufacturerDeregistered",
      "type": "event"
    },
    {
      "anonymous": false,
      "inputs": [
        {
          "indexed": false,
          "internalType": "address",
          "name": "manufacturer",
          "type": "address"
        }
      ],
      "name": "ManufacturerRegistered",
      "type": "event"
    },
    {
      "inputs": [],
      "name": "admin",
      "outputs": [
        {
          "internalType": "address",
          "name": "",
          "type": "address"
        }
      ],
      "stateMutability": "view",
      "type": "function",
      "constant": true
    },
    {
      "inputs": [
        {
          "internalType": "address",
          "name": "",
          "type": "address"
        }
      ],
      "name": "registeredManufacturers",
      "outputs": [
        {
          "internalType": "bool",
          "name": "",
          "type": "bool"
        }
      ],
      "stateMutability": "view",
      "type": "function",
      "constant": true
    },
    {
      "inputs": [
        {
          "internalType": "address",
          "name": "_manufacturer",
          "type": "address"
        }
      ],
      "name": "registerManufacturer",
      "outputs": [],
      "stateMutability": "nonpayable",
      "type": "function"
    },
    {
      "inputs": [
        {
          "internalType": "address",
          "name": "_manufacturer",
          "type": "address"
        }
      ],
      "name": "deregisterManufacturer",
      "outputs": [],
      "stateMutability": "nonpayable",
      "type": "function"
    }
  ],
  "bytecode": "0x608060405234801561001057600080fd5b50336000806101000a81548173ffffffffffffffffffffffffffffffffffffffff021916908373ffffffffffffffffffffffffffffffffffffffff16021790555061050e806100606000396000f3fe608060405234801561001057600080fd5b506004361061004c5760003560e01c806368802685146100515780639adce32b1461006d578063aa7e41c514610089578063f851a440146100b9575b600080fd5b61006b6004803603810190610066919061036f565b6100d7565b005b6100876004803603810190610082919061036f565b6101f7565b005b6100a3600480360381019061009e919061036f565b610316565b6040516100b09190610437565b60405180910390f35b6100c1610336565b6040516100ce919061041c565b60405180910390f35b60008054906101000a900473ffffffffffffffffffffffffffffffffffffffff1673ffffffffffffffffffffffffffffffffffffffff163373ffffffffffffffffffffffffffffffffffffffff1614610165576040517f08c379a000000000000000000000000000000000000000000000000000000000815260040161015c90610452565b60405180910390fd5b6000600160008373ffffffffffffffffffffffffffffffffffffffff1673ffffffffffffffffffffffffffffffffffffffff16815260200190815260200160002060006101000a81548160ff0219169083151502179055507f280d62db6eaf6ea89a7b5c457aac425e3f997d7ad6dbf928a3b7866e1f7ff589816040516101ec919061041c565b60405180910390a150565b60008054906101000a900473ffffffffffffffffffffffffffffffffffffffff1673ffffffffffffffffffffffffffffffffffffffff163373ffffffffffffffffffffffffffffffffffffffff1614610285576040517f08c379a000000000000000000000000000000000000000000000000000000000815260040161027c90610452565b60405180910390fd5b60018060008373ffffffffffffffffffffffffffffffffffffffff1673ffffffffffffffffffffffffffffffffffffffff16815260200190815260200160002060006101000a81548160ff0219169083151502179055507fa02022e57eb2e7ae40c00a3b394bec5819680c1ce2bf125655fb6d98dffdb8df8160405161030b919061041c565b60405180910390a150565b60016020528060005260406000206000915054906101000a900460ff1681565b60008054906101000a900473ffffffffffffffffffffffffffffffffffffffff1681565b600081359050610369816104c1565b92915050565b60006020828403121561038157600080fd5b600061038f8482850161035a565b91505092915050565b6103a181610483565b82525050565b6103b081610495565b82525050565b60006103c3602283610472565b91507f4f6e6c792061646d696e2063616e20706572666f726d2074686973206163746960008301527f6f6e0000000000000000000000000000000000000000000000000000000000006020830152604082019050919050565b60006020820190506104316000830184610398565b92915050565b600060208201905061044c60008301846103a7565b92915050565b6000602082019050818103600083015261046b816103b6565b9050919050565b600082825260208201905092915050565b600061048e826104a1565b9050919050565b60008115159050919050565b600073ffffffffffffffffffffffffffffffffffffffff82169050919050565b6104ca81610483565b81146104d557600080fd5b5056fea264697066735822122045bf1505c1e0f4ff048e10a129e228859ebb3209efdb4f1f0912d6156b9c280e64736f6c63430008000033",
  "immutableReferences": {},
  "source": "// SPDX-License-Identifier: MIT\r\npragma solidity ^0.8.0;\r\n\r\ncontract ManufacturerRegistry {\r\n    address public admin;\r\n    mapping(address => bool) public registeredManufacturers;\r\n\r\n    event ManufacturerRegistered(address manufacturer);\r\n    event ManufacturerDeregistered(address manufacturer);\r\n\r\n    modifier onlyAdmin() {\r\n        require(msg.sender == admin, \"Only admin can perform this action\");\r\n        _;\r\n    }\r\n\r\n    modifier onlyManufacturer() {\r\n        require(registeredManufacturers[msg.sender], \"Only registered manufacturers can perform this action\");\r\n        _;\r\n    }\r\n\r\n    constructor() {\r\n        admin = msg.sender;\r\n    }\r\n\r\n    function registerManufacturer(address _manufacturer) public onlyAdmin {\r\n        registeredManufacturers[_manufacturer] = true;\r\n        emit ManufacturerRegistered(_manufacturer);\r\n    }\r\n\r\n    function deregisterManufacturer(address _manufacturer) public onlyAdmin {\r\n        registeredManufacturers[_manufacturer] = false;\r\n        emit ManufacturerDeregistered(_manufacturer);\r\n    }\r\n}\r\n",
  "sourcePath": "E:\\COLLEGE\\sem6\\BC\\MINI_PROJECT\\latest\\product-authenticator\\contracts\\ManufacturerRegistry.sol",
  "compiler": {
    "name": "solc",
    "version": "0.8.0+commit.c7dfd78e.Emscripten.clang"
  },
  "schemaVersion": "3.4.16",
  "updatedAt": "2025-04-21T08:05:04.699Z",
  "networkType": "ethereum",
  "devdoc": {
    "kind": "dev",
    "methods": {},
    "version": 1
  },
  "userdoc": {
    "kind": "user",
    "methods": {},
    "version": 1
  }
}