{
  "contractName": "OwnershipTransfer",
  "abi": [
    {
      "inputs": [],
      "stateMutability": "nonpayable",
      "type": "constructor"
    },
    {
      "anonymous": false,
      "inputs": [
        {
          "indexed": false,
          "internalType": "string",
          "name": "productId",
          "type": "string"
        },
        {
          "indexed": false,
          "internalType": "address",
          "name": "owner",
          "type": "address"
        },
        {
          "indexed": false,
          "internalType": "uint256",
          "name": "timestamp",
          "type": "uint256"
        }
      ],
      "name": "OwnershipTransferred",
      "type": "event"
    },
    {
      "inputs": [],
      "name": "admin",
      "outputs": [
        {
          "internalType": "address",
          "name": "",
          "type": "address"
        }
      ],
      "stateMutability": "view",
      "type": "function",
      "constant": true
    },
    {
      "inputs": [
        {
          "internalType": "string",
          "name": "",
          "type": "string"
        },
        {
          "internalType": "uint256",
          "name": "",
          "type": "uint256"
        }
      ],
      "name": "productOwnershipHistory",
      "outputs": [
        {
          "internalType": "string",
          "name": "productId",
          "type": "string"
        },
        {
          "internalType": "address",
          "name": "owner",
          "type": "address"
        },
        {
          "internalType": "uint256",
          "name": "timestamp",
          "type": "uint256"
        }
      ],
      "stateMutability": "view",
      "type": "function",
      "constant": true
    },
    {
      "inputs": [
        {
          "internalType": "string",
          "name": "_productId",
          "type": "string"
        },
        {
          "internalType": "address",
          "name": "_newOwner",
          "type": "address"
        }
      ],
      "name": "transferOwnership",
      "outputs": [],
      "stateMutability": "nonpayable",
      "type": "function"
    },
    {
      "inputs": [
        {
          "internalType": "string",
          "name": "_productId",
          "type": "string"
        }
      ],
      "name": "getOwnershipHistory",
      "outputs": [
        {
          "components": [
            {
              "internalType": "string",
              "name": "productId",
              "type": "string"
            },
            {
              "internalType": "address",
              "name": "owner",
              "type": "address"
            },
            {
              "internalType": "uint256",
              "name": "timestamp",
              "type": "uint256"
            }
          ],
          "internalType": "struct OwnershipTransfer.Ownership[]",
          "name": "",
          "type": "tuple[]"
        }
      ],
      "stateMutability": "view",
      "type": "function",
      "constant": true
    }
  ],
  "bytecode": "0x608060405234801561001057600080fd5b50336000806101000a81548173ffffffffffffffffffffffffffffffffffffffff021916908373ffffffffffffffffffffffffffffffffffffffff160217905550610b68806100606000396000f3fe608060405234801561001057600080fd5b506004361061004b5760003560e01c8062c966be1461005057806393d57dd614610080578063c0e793c2146100b2578063f851a440146100ce575b600080fd5b61006a600480360381019061006591906105e0565b6100ec565b60405161007791906108b3565b60405180910390f35b61009a60048036038101906100959190610675565b61025b565b6040516100a9939291906108d5565b60405180910390f35b6100cc60048036038101906100c79190610621565b610360565b005b6100d6610487565b6040516100e39190610898565b60405180910390f35b60606001826040516100fe9190610881565b9081526020016040518091039020805480602002602001604051908101604052809291908181526020016000905b82821015610250578382906000526020600020906003020160405180606001604052908160008201805461015f90610a63565b80601f016020809104026020016040519081016040528092919081815260200182805461018b90610a63565b80156101d85780601f106101ad576101008083540402835291602001916101d8565b820191906000526020600020905b8154815290600101906020018083116101bb57829003601f168201915b505050505081526020016001820160009054906101000a900473ffffffffffffffffffffffffffffffffffffffff1673ffffffffffffffffffffffffffffffffffffffff1673ffffffffffffffffffffffffffffffffffffffff1681526020016002820154815250508152602001906001019061012c565b505050509050919050565b600182805160208101820180518482526020830160208501208183528095505050505050818154811061028d57600080fd5b9060005260206000209060030201600091509150508060000180546102b190610a63565b80601f01602080910402602001604051908101604052809291908181526020018280546102dd90610a63565b801561032a5780601f106102ff5761010080835404028352916020019161032a565b820191906000526020600020905b81548152906001019060200180831161030d57829003601f168201915b5050505050908060010160009054906101000a900473ffffffffffffffffffffffffffffffffffffffff16908060020154905083565b6001826040516103709190610881565b908152602001604051809103902060405180606001604052808481526020018373ffffffffffffffffffffffffffffffffffffffff16815260200142815250908060018154018082558091505060019003906000526020600020906003020160009091909190915060008201518160000190805190602001906103f49291906104ab565b5060208201518160010160006101000a81548173ffffffffffffffffffffffffffffffffffffffff021916908373ffffffffffffffffffffffffffffffffffffffff1602179055506040820151816002015550507f82bee2a4b7939855778a4d6cdc5d5a2636f83911a1b927ce7188e8eb32ace90082824260405161047b939291906108d5565b60405180910390a15050565b60008054906101000a900473ffffffffffffffffffffffffffffffffffffffff1681565b8280546104b790610a63565b90600052602060002090601f0160209004810192826104d95760008555610520565b82601f106104f257805160ff1916838001178555610520565b82800160010185558215610520579182015b8281111561051f578251825591602001919060010190610504565b5b50905061052d9190610531565b5090565b5b8082111561054a576000816000905550600101610532565b5090565b600061056161055c84610944565b610913565b90508281526020810184848401111561057957600080fd5b610584848285610a21565b509392505050565b60008135905061059b81610b04565b92915050565b600082601f8301126105b257600080fd5b81356105c284826020860161054e565b91505092915050565b6000813590506105da81610b1b565b92915050565b6000602082840312156105f257600080fd5b600082013567ffffffffffffffff81111561060c57600080fd5b610618848285016105a1565b91505092915050565b6000806040838503121561063457600080fd5b600083013567ffffffffffffffff81111561064e57600080fd5b61065a858286016105a1565b925050602061066b8582860161058c565b9150509250929050565b6000806040838503121561068857600080fd5b600083013567ffffffffffffffff8111156106a257600080fd5b6106ae858286016105a1565b92505060206106bf858286016105cb565b9150509250929050565b60006106d58383610813565b905092915050565b6106e6816109e5565b82525050565b6106f5816109e5565b82525050565b600061070682610984565b61071081856109a7565b93508360208202850161072285610974565b8060005b8581101561075e578484038952815161073f85826106c9565b945061074a8361099a565b925060208a01995050600181019050610726565b50829750879550505050505092915050565b600061077b8261098f565b61078581856109b8565b9350610795818560208601610a30565b61079e81610af3565b840191505092915050565b60006107b48261098f565b6107be81856109c9565b93506107ce818560208601610a30565b6107d781610af3565b840191505092915050565b60006107ed8261098f565b6107f781856109da565b9350610807818560208601610a30565b80840191505092915050565b600060608301600083015184820360008601526108308282610770565b915050602083015161084560208601826106dd565b5060408301516108586040860182610863565b508091505092915050565b61086c81610a17565b82525050565b61087b81610a17565b82525050565b600061088d82846107e2565b915081905092915050565b60006020820190506108ad60008301846106ec565b92915050565b600060208201905081810360008301526108cd81846106fb565b905092915050565b600060608201905081810360008301526108ef81866107a9565b90506108fe60208301856106ec565b61090b6040830184610872565b949350505050565b6000604051905081810181811067ffffffffffffffff8211171561093a57610939610ac4565b5b8060405250919050565b600067ffffffffffffffff82111561095f5761095e610ac4565b5b601f19601f8301169050602081019050919050565b6000819050602082019050919050565b600081519050919050565b600081519050919050565b6000602082019050919050565b600082825260208201905092915050565b600082825260208201905092915050565b600082825260208201905092915050565b600081905092915050565b60006109f0826109f7565b9050919050565b600073ffffffffffffffffffffffffffffffffffffffff82169050919050565b6000819050919050565b82818337600083830152505050565b60005b83811015610a4e578082015181840152602081019050610a33565b83811115610a5d576000848401525b50505050565b60006002820490506001821680610a7b57607f821691505b60208210811415610a8f57610a8e610a95565b5b50919050565b7f4e487b7100000000000000000000000000000000000000000000000000000000600052602260045260246000fd5b7f4e487b7100000000000000000000000000000000000000000000000000000000600052604160045260246000fd5b6000601f19601f8301169050919050565b610b0d816109e5565b8114610b1857600080fd5b50565b610b2481610a17565b8114610b2f57600080fd5b5056fea2646970667358221220126118d9f8efff7030f6ad5cba56fe19b1d58b363a7bc93f99caaeb4bb72e31364736f6c63430008000033",
  "immutableReferences": {},
  "source": "// SPDX-License-Identifier: MIT\r\npragma solidity ^0.8.0;\r\n\r\ncontract OwnershipTransfer {\r\n    address public admin;\r\n\r\n    struct Ownership {\r\n        string productId;\r\n        address owner;\r\n        uint timestamp;\r\n    }\r\n\r\n    mapping(string => Ownership[]) public productOwnershipHistory;\r\n\r\n    event OwnershipTransferred(string productId, address owner, uint timestamp);\r\n\r\n    modifier onlyAdmin() {\r\n        require(msg.sender == admin, \"Only admin can perform this action\");\r\n        _;\r\n    }\r\n\r\n    constructor() {\r\n        admin = msg.sender;\r\n    }\r\n\r\n    function transferOwnership(string memory _productId, address _newOwner) public {\r\n        productOwnershipHistory[_productId].push(Ownership(_productId, _newOwner, block.timestamp));\r\n        emit OwnershipTransferred(_productId, _newOwner, block.timestamp);\r\n    }\r\n\r\n    function getOwnershipHistory(string memory _productId) public view returns (Ownership[] memory) {\r\n        return productOwnershipHistory[_productId];\r\n    }\r\n}\r\n",
  "sourcePath": "E:\\COLLEGE\\sem6\\BC\\MINI_PROJECT\\latest\\product-authenticator\\contracts\\OwnershipTransfer.sol",
  "compiler": {
    "name": "solc",
    "version": "0.8.0+commit.c7dfd78e.Emscripten.clang"
  },
  "schemaVersion": "3.4.16",
  "updatedAt": "2025-04-21T08:05:04.713Z",
  "networkType": "ethereum",
  "devdoc": {
    "kind": "dev",
    "methods": {},
    "version": 1
  },
  "userdoc": {
    "kind": "user",
    "methods": {},
    "version": 1
  }
}