{
  "contractName": "ProductAuth",
  "abi": [
    {
      "inputs": [],
      "stateMutability": "nonpayable",
      "type": "constructor"
    },
    {
      "anonymous": false,
      "inputs": [
        {
          "indexed": true,
          "internalType": "string",
          "name": "productId",
          "type": "string"
        },
        {
          "indexed": false,
          "internalType": "bool",
          "name": "hashMatches",
          "type": "bool"
        }
      ],
      "name": "ProductHashVerified",
      "type": "event"
    },
    {
      "anonymous": false,
      "inputs": [
        {
          "indexed": true,
          "internalType": "string",
          "name": "productId",
          "type": "string"
        },
        {
          "indexed": false,
          "internalType": "string",
          "name": "name",
          "type": "string"
        },
        {
          "indexed": false,
          "internalType": "address",
          "name": "manufacturer",
          "type": "address"
        },
        {
          "indexed": false,
          "internalType": "bytes32",
          "name": "productHash",
          "type": "bytes32"
        }
      ],
      "name": "ProductRegistered",
      "type": "event"
    },
    {
      "anonymous": false,
      "inputs": [
        {
          "indexed": true,
          "internalType": "string",
          "name": "productId",
          "type": "string"
        },
        {
          "indexed": false,
          "internalType": "bool",
          "name": "isAuthentic",
          "type": "bool"
        }
      ],
      "name": "ProductVerified",
      "type": "event"
    },
    {
      "inputs": [],
      "name": "admin",
      "outputs": [
        {
          "internalType": "address",
          "name": "",
          "type": "address"
        }
      ],
      "stateMutability": "view",
      "type": "function",
      "constant": true
    },
    {
      "inputs": [
        {
          "internalType": "string",
          "name": "",
          "type": "string"
        }
      ],
      "name": "productHashes",
      "outputs": [
        {
          "internalType": "bytes32",
          "name": "",
          "type": "bytes32"
        }
      ],
      "stateMutability": "view",
      "type": "function",
      "constant": true
    },
    {
      "inputs": [
        {
          "internalType": "string",
          "name": "",
          "type": "string"
        }
      ],
      "name": "products",
      "outputs": [
        {
          "internalType": "string",
          "name": "name",
          "type": "string"
        },
        {
          "internalType": "string",
          "name": "batchNumber",
          "type": "string"
        },
        {
          "internalType": "string",
          "name": "origin",
          "type": "string"
        },
        {
          "internalType": "address",
          "name": "manufacturer",
          "type": "address"
        },
        {
          "internalType": "bool",
          "name": "isAuthentic",
          "type": "bool"
        }
      ],
      "stateMutability": "view",
      "type": "function",
      "constant": true
    },
    {
      "inputs": [
        {
          "internalType": "string",
          "name": "_id",
          "type": "string"
        },
        {
          "internalType": "string",
          "name": "_name",
          "type": "string"
        },
        {
          "internalType": "string",
          "name": "_batchNumber",
          "type": "string"
        },
        {
          "internalType": "string",
          "name": "_origin",
          "type": "string"
        },
        {
          "internalType": "address",
          "name": "_manufacturer",
          "type": "address"
        },
        {
          "internalType": "bytes32",
          "name": "_hash",
          "type": "bytes32"
        }
      ],
      "name": "registerProduct",
      "outputs": [],
      "stateMutability": "nonpayable",
      "type": "function"
    },
    {
      "inputs": [
        {
          "internalType": "string",
          "name": "_id",
          "type": "string"
        }
      ],
      "name": "verifyProduct",
      "outputs": [
        {
          "internalType": "string",
          "name": "",
          "type": "string"
        },
        {
          "internalType": "bool",
          "name": "",
          "type": "bool"
        }
      ],
      "stateMutability": "view",
      "type": "function",
      "constant": true
    },
    {
      "inputs": [
        {
          "internalType": "string",
          "name": "_id",
          "type": "string"
        },
        {
          "internalType": "bytes32",
          "name": "_hash",
          "type": "bytes32"
        }
      ],
      "name": "verifyProductByHash",
      "outputs": [
        {
          "internalType": "bool",
          "name": "",
          "type": "bool"
        }
      ],
      "stateMutability": "nonpayable",
      "type": "function"
    },
    {
      "inputs": [
        {
          "internalType": "string",
          "name": "_id",
          "type": "string"
        }
      ],
      "name": "markProductCounterfeit",
      "outputs": [],
      "stateMutability": "nonpayable",
      "type": "function"
    }
  ],
  "bytecode": "0x608060405234801561001057600080fd5b50336000806101000a81548173ffffffffffffffffffffffffffffffffffffffff021916908373ffffffffffffffffffffffffffffffffffffffff160217905550610fcd806100606000396000f3fe608060405234801561001057600080fd5b506004361061007d5760003560e01c80636968cc251161005b5780636968cc25146101025780638fb6049b1461011e57806392efc4531461014e578063f851a4401461017f5761007d565b80630186a423146100825780632be86ba3146100b6578063480983cf146100d2575b600080fd5b61009c600480360381019061009791906109dd565b61019d565b6040516100ad959493929190610d2e565b60405180910390f35b6100d060048036038101906100cb91906109dd565b6103ae565b005b6100ec60048036038101906100e79190610a1e565b6104c7565b6040516100f99190610c8a565b60405180910390f35b61011c60048036038101906101179190610a72565b610544565b005b610138600480360381019061013391906109dd565b61076d565b6040516101459190610ca5565b60405180910390f35b610168600480360381019061016391906109dd565b61079b565b604051610176929190610cfe565b60405180910390f35b610187610884565b6040516101949190610c6f565b60405180910390f35b6001818051602081018201805184825260208301602085012081835280955050505050506000915090508060000180546101d690610ec8565b80601f016020809104026020016040519081016040528092919081815260200182805461020290610ec8565b801561024f5780601f106102245761010080835404028352916020019161024f565b820191906000526020600020905b81548152906001019060200180831161023257829003601f168201915b50505050509080600101805461026490610ec8565b80601f016020809104026020016040519081016040528092919081815260200182805461029090610ec8565b80156102dd5780601f106102b2576101008083540402835291602001916102dd565b820191906000526020600020905b8154815290600101906020018083116102c057829003601f168201915b5050505050908060020180546102f290610ec8565b80601f016020809104026020016040519081016040528092919081815260200182805461031e90610ec8565b801561036b5780601f106103405761010080835404028352916020019161036b565b820191906000526020600020905b81548152906001019060200180831161034e57829003601f168201915b5050505050908060030160009054906101000a900473ffffffffffffffffffffffffffffffffffffffff16908060030160149054906101000a900460ff16905085565b60008054906101000a900473ffffffffffffffffffffffffffffffffffffffff1673ffffffffffffffffffffffffffffffffffffffff163373ffffffffffffffffffffffffffffffffffffffff161461043c576040517f08c379a000000000000000000000000000000000000000000000000000000000815260040161043390610d96565b60405180910390fd5b600060018260405161044e9190610c58565b908152602001604051809103902060030160146101000a81548160ff021916908315150217905550806040516104849190610c58565b60405180910390207f344ba70057b3572137fc8714c11111786b52a6098c0002e23754e3c3d602551960006040516104bc9190610c8a565b60405180910390a250565b600080826002856040516104db9190610c58565b908152602001604051809103902054149050836040516104fb9190610c58565b60405180910390207fc6de0c74745a3ebc49b9707f79c85219566b928bc00258bfb08b4da5fcb1b506826040516105329190610c8a565b60405180910390a28091505092915050565b60008054906101000a900473ffffffffffffffffffffffffffffffffffffffff1673ffffffffffffffffffffffffffffffffffffffff163373ffffffffffffffffffffffffffffffffffffffff16146105d2576040517f08c379a00000000000000000000000000000000000000000000000000000000081526004016105c990610d96565b60405180910390fd5b6040518060a001604052808681526020018581526020018481526020018373ffffffffffffffffffffffffffffffffffffffff168152602001600115158152506001876040516106229190610c58565b9081526020016040518091039020600082015181600001908051906020019061064c9291906108a8565b5060208201518160010190805190602001906106699291906108a8565b5060408201518160020190805190602001906106869291906108a8565b5060608201518160030160006101000a81548173ffffffffffffffffffffffffffffffffffffffff021916908373ffffffffffffffffffffffffffffffffffffffff16021790555060808201518160030160146101000a81548160ff021916908315150217905550905050806002876040516107029190610c58565b908152602001604051809103902081905550856040516107229190610c58565b60405180910390207f87071c7a67dd305e3da45f459af360adc92c4438a4a6081f0cca22070f398a4686848460405161075d93929190610cc0565b60405180910390a2505050505050565b6002818051602081018201805184825260208301602085012081835280955050505050506000915090505481565b606060006001836040516107af9190610c58565b90815260200160405180910390206000016001846040516107d09190610c58565b908152602001604051809103902060030160149054906101000a900460ff168180546107fb90610ec8565b80601f016020809104026020016040519081016040528092919081815260200182805461082790610ec8565b80156108745780601f1061084957610100808354040283529160200191610874565b820191906000526020600020905b81548152906001019060200180831161085757829003601f168201915b5050505050915091509150915091565b60008054906101000a900473ffffffffffffffffffffffffffffffffffffffff1681565b8280546108b490610ec8565b90600052602060002090601f0160209004810192826108d6576000855561091d565b82601f106108ef57805160ff191683800117855561091d565b8280016001018555821561091d579182015b8281111561091c578251825591602001919060010190610901565b5b50905061092a919061092e565b5090565b5b8082111561094757600081600090555060010161092f565b5090565b600061095e61095984610de7565b610db6565b90508281526020810184848401111561097657600080fd5b610981848285610e86565b509392505050565b60008135905061099881610f69565b92915050565b6000813590506109ad81610f80565b92915050565b600082601f8301126109c457600080fd5b81356109d484826020860161094b565b91505092915050565b6000602082840312156109ef57600080fd5b600082013567ffffffffffffffff811115610a0957600080fd5b610a15848285016109b3565b91505092915050565b60008060408385031215610a3157600080fd5b600083013567ffffffffffffffff811115610a4b57600080fd5b610a57858286016109b3565b9250506020610a688582860161099e565b9150509250929050565b60008060008060008060c08789031215610a8b57600080fd5b600087013567ffffffffffffffff811115610aa557600080fd5b610ab189828a016109b3565b965050602087013567ffffffffffffffff811115610ace57600080fd5b610ada89828a016109b3565b955050604087013567ffffffffffffffff811115610af757600080fd5b610b0389828a016109b3565b945050606087013567ffffffffffffffff811115610b2057600080fd5b610b2c89828a016109b3565b9350506080610b3d89828a01610989565b92505060a0610b4e89828a0161099e565b9150509295509295509295565b610b6481610e3e565b82525050565b610b7381610e50565b82525050565b610b8281610e5c565b82525050565b6000610b9382610e17565b610b9d8185610e22565b9350610bad818560208601610e95565b610bb681610f58565b840191505092915050565b6000610bcc82610e17565b610bd68185610e33565b9350610be6818560208601610e95565b80840191505092915050565b6000610bff602283610e22565b91507f4f6e6c792061646d696e2063616e20706572666f726d2074686973206163746960008301527f6f6e0000000000000000000000000000000000000000000000000000000000006020830152604082019050919050565b6000610c648284610bc1565b915081905092915050565b6000602082019050610c846000830184610b5b565b92915050565b6000602082019050610c9f6000830184610b6a565b92915050565b6000602082019050610cba6000830184610b79565b92915050565b60006060820190508181036000830152610cda8186610b88565b9050610ce96020830185610b5b565b610cf66040830184610b79565b949350505050565b60006040820190508181036000830152610d188185610b88565b9050610d276020830184610b6a565b9392505050565b600060a0820190508181036000830152610d488188610b88565b90508181036020830152610d5c8187610b88565b90508181036040830152610d708186610b88565b9050610d7f6060830185610b5b565b610d8c6080830184610b6a565b9695505050505050565b60006020820190508181036000830152610daf81610bf2565b9050919050565b6000604051905081810181811067ffffffffffffffff82111715610ddd57610ddc610f29565b5b8060405250919050565b600067ffffffffffffffff821115610e0257610e01610f29565b5b601f19601f8301169050602081019050919050565b600081519050919050565b600082825260208201905092915050565b600081905092915050565b6000610e4982610e66565b9050919050565b60008115159050919050565b6000819050919050565b600073ffffffffffffffffffffffffffffffffffffffff82169050919050565b82818337600083830152505050565b60005b83811015610eb3578082015181840152602081019050610e98565b83811115610ec2576000848401525b50505050565b60006002820490506001821680610ee057607f821691505b60208210811415610ef457610ef3610efa565b5b50919050565b7f4e487b7100000000000000000000000000000000000000000000000000000000600052602260045260246000fd5b7f4e487b7100000000000000000000000000000000000000000000000000000000600052604160045260246000fd5b6000601f19601f8301169050919050565b610f7281610e3e565b8114610f7d57600080fd5b50565b610f8981610e5c565b8114610f9457600080fd5b5056fea264697066735822122090cfd38a49dd4ce299877f75455a2269e371baf11a601c23cfee9f08555f51fe64736f6c63430008000033",
  "immutableReferences": {},
  "source": "// SPDX-License-Identifier: MIT\r\npragma solidity ^0.8.0;\r\n\r\ncontract ProductAuth {\r\n    address public admin;\r\n\r\n    struct Product {\r\n        string name;\r\n        string batchNumber;\r\n        string origin;\r\n        address manufacturer;\r\n        bool isAuthentic;\r\n    }\r\n\r\n    mapping(string => Product) public products;\r\n    mapping(string => bytes32) public productHashes;\r\n\r\n    event ProductRegistered(\r\n        string   indexed productId,\r\n        string             name,\r\n        address            manufacturer,\r\n        bytes32            productHash\r\n    );\r\n    event ProductVerified(string indexed productId, bool isAuthentic);\r\n    event ProductHashVerified(string indexed productId, bool hashMatches);\r\n\r\n    modifier onlyAdmin() {\r\n        require(msg.sender == admin, \"Only admin can perform this action\");\r\n        _;\r\n    }\r\n\r\n    constructor() {\r\n        admin = msg.sender;\r\n    }\r\n\r\n    function registerProduct(\r\n        string  memory _id,\r\n        string  memory _name,\r\n        string  memory _batchNumber,\r\n        string  memory _origin,\r\n        address _manufacturer,\r\n        bytes32 _hash\r\n    ) public onlyAdmin {\r\n        products[_id] = Product(_name, _batchNumber, _origin, _manufacturer, true);\r\n        productHashes[_id] = _hash;\r\n        emit ProductRegistered(_id, _name, _manufacturer, _hash);\r\n    }\r\n\r\n    function verifyProduct(string memory _id) public view returns (string memory, bool) {\r\n        return (products[_id].name, products[_id].isAuthentic);\r\n    }\r\n\r\n    function verifyProductByHash(string memory _id, bytes32 _hash) public returns (bool) {\r\n        bool matches = (productHashes[_id] == _hash);\r\n        emit ProductHashVerified(_id, matches);\r\n        return matches;\r\n    }\r\n\r\n    function markProductCounterfeit(string memory _id) public onlyAdmin {\r\n        products[_id].isAuthentic = false;\r\n        emit ProductVerified(_id, false);\r\n    }\r\n}\r\n",
  "sourcePath": "E:\\COLLEGE\\sem6\\BC\\MINI_PROJECT\\latest\\product-authenticator\\contracts\\ProductAuth.sol",
  "compiler": {
    "name": "solc",
    "version": "0.8.0+commit.c7dfd78e.Emscripten.clang"
  },
  "schemaVersion": "3.4.16",
  "updatedAt": "2025-04-21T08:05:04.695Z",
  "networkType": "ethereum",
  "devdoc": {
    "kind": "dev",
    "methods": {},
    "version": 1
  },
  "userdoc": {
    "kind": "user",
    "methods": {},
    "version": 1
  }
}