{
  "contractName": "ProductAuthenticationCheck",
  "abi": [
    {
      "inputs": [
        {
          "internalType": "address",
          "name": "_productAuthContract",
          "type": "address"
        },
        {
          "internalType": "address",
          "name": "_manufacturerRegistryContract",
          "type": "address"
        },
        {
          "internalType": "address",
          "name": "_distributorTrackerContract",
          "type": "address"
        },
        {
          "internalType": "address",
          "name": "_ownershipTransferContract",
          "type": "address"
        }
      ],
      "stateMutability": "nonpayable",
      "type": "constructor"
    },
    {
      "inputs": [],
      "name": "distributorTrackerContract",
      "outputs": [
        {
          "internalType": "address",
          "name": "",
          "type": "address"
        }
      ],
      "stateMutability": "view",
      "type": "function",
      "constant": true
    },
    {
      "inputs": [],
      "name": "manufacturerRegistryContract",
      "outputs": [
        {
          "internalType": "address",
          "name": "",
          "type": "address"
        }
      ],
      "stateMutability": "view",
      "type": "function",
      "constant": true
    },
    {
      "inputs": [],
      "name": "ownershipTransferContract",
      "outputs": [
        {
          "internalType": "address",
          "name": "",
          "type": "address"
        }
      ],
      "stateMutability": "view",
      "type": "function",
      "constant": true
    },
    {
      "inputs": [],
      "name": "productAuthContract",
      "outputs": [
        {
          "internalType": "address",
          "name": "",
          "type": "address"
        }
      ],
      "stateMutability": "view",
      "type": "function",
      "constant": true
    },
    {
      "inputs": [
        {
          "internalType": "string",
          "name": "_productId",
          "type": "string"
        },
        {
          "internalType": "bytes32",
          "name": "_productHash",
          "type": "bytes32"
        }
      ],
      "name": "verifyProduct",
      "outputs": [
        {
          "internalType": "bool",
          "name": "",
          "type": "bool"
        }
      ],
      "stateMutability": "view",
      "type": "function",
      "constant": true
    }
  ],
  "bytecode": "0x60806040523480156200001157600080fd5b50604051620010713803806200107183398181016040528101906200003791906200015b565b836000806101000a81548173ffffffffffffffffffffffffffffffffffffffff021916908373ffffffffffffffffffffffffffffffffffffffff16021790555082600160006101000a81548173ffffffffffffffffffffffffffffffffffffffff021916908373ffffffffffffffffffffffffffffffffffffffff16021790555081600260006101000a81548173ffffffffffffffffffffffffffffffffffffffff021916908373ffffffffffffffffffffffffffffffffffffffff16021790555080600360006101000a81548173ffffffffffffffffffffffffffffffffffffffff021916908373ffffffffffffffffffffffffffffffffffffffff1602179055505050505062000215565b6000815190506200015581620001fb565b92915050565b600080600080608085870312156200017257600080fd5b6000620001828782880162000144565b9450506020620001958782880162000144565b9350506040620001a88782880162000144565b9250506060620001bb8782880162000144565b91505092959194509250565b6000620001d482620001db565b9050919050565b600073ffffffffffffffffffffffffffffffffffffffff82169050919050565b6200020681620001c7565b81146200021257600080fd5b50565b610e4c80620002256000396000f3fe608060405234801561001057600080fd5b50600436106100575760003560e01c80631a2c5f9e1461005c57806326f07d6e1461008c5780636dfa3a05146100aa5780638755f1e2146100c8578063fa100804146100e6575b600080fd5b61007660048036038101906100719190610a4f565b610104565b6040516100839190610bd4565b60405180910390f35b6100946105ab565b6040516100a19190610bb9565b60405180910390f35b6100b26105d1565b6040516100bf9190610bb9565b60405180910390f35b6100d06105f7565b6040516100dd9190610bb9565b60405180910390f35b6100ee61061d565b6040516100fb9190610bb9565b60405180910390f35b60008060008054906101000a900473ffffffffffffffffffffffffffffffffffffffff1673ffffffffffffffffffffffffffffffffffffffff166392efc453856040518263ffffffff1660e01b81526004016101609190610bef565b60006040518083038186803b15801561017857600080fd5b505afa15801561018c573d6000803e3d6000fd5b505050506040513d6000823e3d601f19601f820116820180604052508101906101b591906109fb565b915050806101c75760009150506105a5565b60008060009054906101000a900473ffffffffffffffffffffffffffffffffffffffff1673ffffffffffffffffffffffffffffffffffffffff16638fb6049b866040518263ffffffff1660e01b81526004016102239190610bef565b60206040518083038186803b15801561023b57600080fd5b505afa15801561024f573d6000803e3d6000fd5b505050506040513d601f19601f8201168201806040525081019061027391906109d2565b9050838114610287576000925050506105a5565b60008060009054906101000a900473ffffffffffffffffffffffffffffffffffffffff1673ffffffffffffffffffffffffffffffffffffffff16630186a423876040518263ffffffff1660e01b81526004016102e39190610bef565b60006040518083038186803b1580156102fb57600080fd5b505afa15801561030f573d6000803e3d6000fd5b505050506040513d6000823e3d601f19601f820116820180604052508101906103389190610aa3565b5093505050506000600160009054906101000a900473ffffffffffffffffffffffffffffffffffffffff1673ffffffffffffffffffffffffffffffffffffffff1663412d7676836040518263ffffffff1660e01b815260040161039b9190610bb9565b60206040518083038186803b1580156103b357600080fd5b505afa1580156103c7573d6000803e3d6000fd5b505050506040513d601f19601f820116820180604052508101906103eb91906109a9565b9050806103ff5760009450505050506105a5565b6000600260009054906101000a900473ffffffffffffffffffffffffffffffffffffffff1673ffffffffffffffffffffffffffffffffffffffff1663c4d6ac98896040518263ffffffff1660e01b815260040161045c9190610bef565b60006040518083038186803b15801561047457600080fd5b505afa158015610488573d6000803e3d6000fd5b505050506040513d6000823e3d601f19601f820116820180604052508101906104b19190610912565b505090506000815114156104cd576000955050505050506105a5565b6000600360009054906101000a900473ffffffffffffffffffffffffffffffffffffffff1673ffffffffffffffffffffffffffffffffffffffff1662c966be8a6040518263ffffffff1660e01b81526004016105299190610bef565b60006040518083038186803b15801561054157600080fd5b505afa158015610555573d6000803e3d6000fd5b505050506040513d6000823e3d601f19601f8201168201806040525081019061057e91906108a6565b50905060008151141561059a57600096505050505050506105a5565b600196505050505050505b92915050565b600160009054906101000a900473ffffffffffffffffffffffffffffffffffffffff1681565b600260009054906101000a900473ffffffffffffffffffffffffffffffffffffffff1681565b600360009054906101000a900473ffffffffffffffffffffffffffffffffffffffff1681565b60008054906101000a900473ffffffffffffffffffffffffffffffffffffffff1681565b600061065461064f84610c42565b610c11565b9050808382526020820190508285602086028201111561067357600080fd5b60005b858110156106a357816106898882610795565b845260208401935060208301925050600181019050610676565b5050509392505050565b60006106c06106bb84610c6e565b610c11565b905080838252602082019050828560208602820111156106df57600080fd5b60005b8581101561070f57816106f58882610891565b8452602084019350602083019250506001810190506106e2565b5050509392505050565b600061072c61072784610c9a565b610c11565b90508281526020810184848401111561074457600080fd5b61074f848285610d38565b509392505050565b600061076a61076584610c9a565b610c11565b90508281526020810184848401111561078257600080fd5b61078d848285610d47565b509392505050565b6000815190506107a481610dba565b92915050565b600082601f8301126107bb57600080fd5b81516107cb848260208601610641565b91505092915050565b600082601f8301126107e557600080fd5b81516107f58482602086016106ad565b91505092915050565b60008151905061080d81610dd1565b92915050565b60008135905061082281610de8565b92915050565b60008151905061083781610de8565b92915050565b600082601f83011261084e57600080fd5b813561085e848260208601610719565b91505092915050565b600082601f83011261087857600080fd5b8151610888848260208601610757565b91505092915050565b6000815190506108a081610dff565b92915050565b600080604083850312156108b957600080fd5b600083015167ffffffffffffffff8111156108d357600080fd5b6108df858286016107aa565b925050602083015167ffffffffffffffff8111156108fc57600080fd5b610908858286016107d4565b9150509250929050565b60008060006060848603121561092757600080fd5b600084015167ffffffffffffffff81111561094157600080fd5b61094d868287016107d4565b935050602084015167ffffffffffffffff81111561096a57600080fd5b610976868287016107aa565b925050604084015167ffffffffffffffff81111561099357600080fd5b61099f868287016107aa565b9150509250925092565b6000602082840312156109bb57600080fd5b60006109c9848285016107fe565b91505092915050565b6000602082840312156109e457600080fd5b60006109f284828501610828565b91505092915050565b60008060408385031215610a0e57600080fd5b600083015167ffffffffffffffff811115610a2857600080fd5b610a3485828601610867565b9250506020610a45858286016107fe565b9150509250929050565b60008060408385031215610a6257600080fd5b600083013567ffffffffffffffff811115610a7c57600080fd5b610a888582860161083d565b9250506020610a9985828601610813565b9150509250929050565b600080600080600060a08688031215610abb57600080fd5b600086015167ffffffffffffffff811115610ad557600080fd5b610ae188828901610867565b955050602086015167ffffffffffffffff811115610afe57600080fd5b610b0a88828901610867565b945050604086015167ffffffffffffffff811115610b2757600080fd5b610b3388828901610867565b9350506060610b4488828901610795565b9250506080610b55888289016107fe565b9150509295509295909350565b610b6b81610ce6565b82525050565b610b7a81610cf8565b82525050565b6000610b8b82610cca565b610b958185610cd5565b9350610ba5818560208601610d47565b610bae81610da9565b840191505092915050565b6000602082019050610bce6000830184610b62565b92915050565b6000602082019050610be96000830184610b71565b92915050565b60006020820190508181036000830152610c098184610b80565b905092915050565b6000604051905081810181811067ffffffffffffffff82111715610c3857610c37610d7a565b5b8060405250919050565b600067ffffffffffffffff821115610c5d57610c5c610d7a565b5b602082029050602081019050919050565b600067ffffffffffffffff821115610c8957610c88610d7a565b5b602082029050602081019050919050565b600067ffffffffffffffff821115610cb557610cb4610d7a565b5b601f19601f8301169050602081019050919050565b600081519050919050565b600082825260208201905092915050565b6000610cf182610d0e565b9050919050565b60008115159050919050565b6000819050919050565b600073ffffffffffffffffffffffffffffffffffffffff82169050919050565b6000819050919050565b82818337600083830152505050565b60005b83811015610d65578082015181840152602081019050610d4a565b83811115610d74576000848401525b50505050565b7f4e487b7100000000000000000000000000000000000000000000000000000000600052604160045260246000fd5b6000601f19601f8301169050919050565b610dc381610ce6565b8114610dce57600080fd5b50565b610dda81610cf8565b8114610de557600080fd5b50565b610df181610d04565b8114610dfc57600080fd5b50565b610e0881610d2e565b8114610e1357600080fd5b5056fea2646970667358221220ce849f57bc13f14f4093f236f9f58a84e79059ec27cb4d97a7899682f944d8ac64736f6c63430008000033",
  "immutableReferences": {},
  "source": "// SPDX-License-Identifier: MIT\r\npragma solidity ^0.8.0;\r\n\r\n// Interfaces for the ProductAuth, ManufacturerRegistry, DistributorTracker, and OwnershipTransfer contracts\r\ninterface IProductAuth {\r\n    // returns (name, isAuthentic)\r\n    function verifyProduct(string memory _id) external view returns (string memory, bool);\r\n    // public mapping getter for the stored hash\r\n    function productHashes(string memory _id) external view returns (bytes32);\r\n    // public mapping getter for the Product struct:\r\n    // (name, batchNumber, origin, manufacturer, isAuthentic)\r\n    function products(string memory _id) external view returns (\r\n        string memory, string memory, string memory, address, bool\r\n    );\r\n}\r\n\r\ninterface IManufacturerRegistry {\r\n    function isRegisteredManufacturer(address _manufacturer) external view returns (bool);\r\n}\r\n\r\ninterface IDistributorTracker {\r\n    function getTransfers(string memory _productId)\r\n      external view\r\n      returns (uint[] memory timestamps, address[] memory froms, address[] memory tos);\r\n}\r\n\r\ninterface IOwnershipTransfer {\r\n    function getOwnershipHistory(string memory _productId)\r\n      external view\r\n      returns (address[] memory owners, uint[] memory timestamps);\r\n}\r\n\r\ncontract ProductAuthenticationCheck {\r\n    address public productAuthContract;\r\n    address public manufacturerRegistryContract;\r\n    address public distributorTrackerContract;\r\n    address public ownershipTransferContract;\r\n\r\n    constructor(\r\n        address _productAuthContract,\r\n        address _manufacturerRegistryContract,\r\n        address _distributorTrackerContract,\r\n        address _ownershipTransferContract\r\n    ) {\r\n        productAuthContract         = _productAuthContract;\r\n        manufacturerRegistryContract= _manufacturerRegistryContract;\r\n        distributorTrackerContract  = _distributorTrackerContract;\r\n        ownershipTransferContract   = _ownershipTransferContract;\r\n    }\r\n\r\n    /// @notice Runs a full authenticity check over 4 modules:\r\n    ///   1) Core flag\r\n    ///   2) Hash match\r\n    ///   3) Registered manufacturer\r\n    ///   4) At least one distributor transfer\r\n    ///   5) At least one ownership record\r\n    function verifyProduct(\r\n        string memory _productId,\r\n        bytes32      _productHash\r\n    ) public view returns (bool) {\r\n        // --- 1) Core authenticity flag ---\r\n        (, bool isAuthentic) = IProductAuth(productAuthContract).verifyProduct(_productId);\r\n        if (!isAuthentic) {\r\n            return false;\r\n        }\r\n\r\n        // --- 2) Hash match ---\r\n        bytes32 stored = IProductAuth(productAuthContract).productHashes(_productId);\r\n        if (stored != _productHash) {\r\n            return false;\r\n        }\r\n\r\n        // --- 3) Manufacturer registered? ---\r\n        // retrieve manufacturer from the products mapping\r\n        (, , , address manufacturer, ) =\r\n            IProductAuth(productAuthContract).products(_productId);\r\n        bool okManu = IManufacturerRegistry(manufacturerRegistryContract)\r\n                        .isRegisteredManufacturer(manufacturer);\r\n        if (!okManu) {\r\n            return false;\r\n        }\r\n\r\n        // --- 4) Distributor transfer exists? ---\r\n        (uint[] memory times, , ) =\r\n            IDistributorTracker(distributorTrackerContract)\r\n              .getTransfers(_productId);\r\n        if (times.length == 0) {\r\n            return false;\r\n        }\r\n\r\n        // --- 5) Ownership history exists? ---\r\n        (address[] memory owners, ) =\r\n            IOwnershipTransfer(ownershipTransferContract)\r\n              .getOwnershipHistory(_productId);\r\n        if (owners.length == 0) {\r\n            return false;\r\n        }\r\n\r\n        return true;\r\n    }\r\n}\r\n",
  "sourcePath": "E:\\COLLEGE\\sem6\\BC\\MINI_PROJECT\\latest\\product-authenticator\\contracts\\ProductAuthenticationCheck.sol",
  "compiler": {
    "name": "solc",
    "version": "0.8.0+commit.c7dfd78e.Emscripten.clang"
  },
  "schemaVersion": "3.4.16",
  "updatedAt": "2025-04-21T08:05:04.720Z",
  "networkType": "ethereum",
  "devdoc": {
    "kind": "dev",
    "methods": {},
    "version": 1
  },
  "userdoc": {
    "kind": "user",
    "methods": {
      "verifyProduct(string,bytes32)": {
        "notice": "Runs a full authenticity check over 4 modules:   1) Core flag   2) Hash match   3) Registered manufacturer   4) At least one distributor transfer   5) At least one ownership record"
      }
    },
    "version": 1
  }
}